:100000000AC04DC16BC10FC00EC00DC00CC00BC0EB
:100010000AC009C008C011271FBFCFE5D0E0DEBF6E
:10002000CDBF7BD18BC1ECCF12B944E04A95F1F73B
:1000300000C000C042E042B952E05A95F1F700001A
:1000400012B952E05A95F1F70000000042B952E0AF
:100050005A95F1F7000012B959E05A95F1F70000EE
:1000600000C000C042B942E04A95F1F7000008958F
:1000700012B942E04A95F1F7000012B952E05A95E0
:10008000F1F7000042E042B952E05A95F1F7000062
:10009000000012B954E05A95F1F700C0000042B9CF
:1000A00057E05A95F1F700C0000012B952E05A9596
:1000B000F1F7000042B952E05A95F1F7000012B989
:1000C00052E05A95F1F7000042B959E05A95F1F71C
:1000D0000000000000C0000012B952E05A95F1F78C
:1000E000000042B954E05A95F1F700C000C000008A
:1000F00012B952E05A95F1F7000042B952E05A9510
:10010000F1F7000012B952E05A95F1F7000042B938
:1001100059E05A95F1F70000000000C0000012B944
:1001200052E05A95F1F7000042B954E05A95F1F7C0
:1001300000C000C0000012B952E05A95F1F700006B
:1001400042B952E05A95F1F7000012B957E05A95BA
:10015000F1F700C042B952E05A95F1F7000000C033
:1001600012B952E05A95F1F7000042B957E05A959A
:10017000F1F700C012B952E05A95F1F7000042B908
:1001800042E04A95F1F700004FCF44E04ABFF894AF
:100190004FE057E241505040E9F700C00000019B9A
:1001A000FECF66DF12B954E05A95F1F700C042E085
:1001B00042B954E05A95F1F700C000C0000012B9EE
:1001C00058E05A95F1F742B952E05A95F1F700001C
:1001D00012B952E05A95F1F7000042B942E04A954F
:1001E000F1F7000021DF78940895CF93DF931F93F8
:1001F000CDB7DEB744E04ABFF89443ED50E3415039
:100200005040E9F700C0000040B14170CF5FDF4FC0
:100210004883C150D040CF5FDF4F4881C150D040AC
:10022000442391F325DF12B952E05A95F1F700000B
:1002300012B942E04A95F1F70000000042E042B9ED
:1002400052E05A95F1F7000012B952E05A95F1F7D1
:100250000000000012B952E05A95F1F7000012B9FF
:1002600052E05A95F1F7000012B952E05A95F1F7B1
:100270000000000042B952E05A95F1F7000012B9AF
:1002800052E05A95F1F7000042B942E04A95F1F781
:100290000000CADE78940F91DF91CF9108951F93EB
:1002A0000F930FB70F9310E04F935F936F937F936C
:1002B0008F939F93AF93BF93EF93FF9366DFFF916D
:1002C000EF91BF91AF919F918F917F916F915F91CE
:1002D0004F910F910FBF0F911F9118951F930F937F
:1002E0000FB70F9310E04F935F936F937F938F93AC
:1002F0009F93AF93BF93EF93FF9377DFFF91EF91BE
:10030000BF91AF919F918F917F916F915F914F912D
:100310000F910FBF0F911F911895F89441E043BBC7
:1003200053E055BB65E063B940BB42BB42E041B915
:1003300042B955BF789445E04ABFFECFF894FFCF4D
:00000001FF
